{
  "_format": "hh-sol-artifact-1",
  "contractName": "NFTCreation",
  "sourceName": "contracts/NFTCreation.sol",
  "abi": [
    {
      "inputs": [
        {
          "internalType": "address",
          "name": "marketplace_contractaddress",
          "type": "address"
        }
      ],
      "stateMutability": "nonpayable",
      "type": "constructor"
    },
    {
      "anonymous": false,
      "inputs": [
        {
          "indexed": true,
          "internalType": "address",
          "name": "owner",
          "type": "address"
        },
        {
          "indexed": true,
          "internalType": "address",
          "name": "approved",
          "type": "address"
        },
        {
          "indexed": true,
          "internalType": "uint256",
          "name": "tokenId",
          "type": "uint256"
        }
      ],
      "name": "Approval",
      "type": "event"
    },
    {
      "anonymous": false,
      "inputs": [
        {
          "indexed": true,
          "internalType": "address",
          "name": "owner",
          "type": "address"
        },
        {
          "indexed": true,
          "internalType": "address",
          "name": "operator",
          "type": "address"
        },
        {
          "indexed": false,
          "internalType": "bool",
          "name": "approved",
          "type": "bool"
        }
      ],
      "name": "ApprovalForAll",
      "type": "event"
    },
    {
      "anonymous": false,
      "inputs": [
        {
          "indexed": true,
          "internalType": "address",
          "name": "from",
          "type": "address"
        },
        {
          "indexed": true,
          "internalType": "address",
          "name": "to",
          "type": "address"
        },
        {
          "indexed": true,
          "internalType": "uint256",
          "name": "tokenId",
          "type": "uint256"
        }
      ],
      "name": "Transfer",
      "type": "event"
    },
    {
      "inputs": [
        {
          "internalType": "address",
          "name": "to",
          "type": "address"
        },
        {
          "internalType": "uint256",
          "name": "tokenId",
          "type": "uint256"
        }
      ],
      "name": "approve",
      "outputs": [],
      "stateMutability": "nonpayable",
      "type": "function"
    },
    {
      "inputs": [
        {
          "internalType": "address",
          "name": "owner",
          "type": "address"
        }
      ],
      "name": "balanceOf",
      "outputs": [
        {
          "internalType": "uint256",
          "name": "",
          "type": "uint256"
        }
      ],
      "stateMutability": "view",
      "type": "function"
    },
    {
      "inputs": [
        {
          "internalType": "string",
          "name": "tokenuri",
          "type": "string"
        }
      ],
      "name": "createNFT",
      "outputs": [
        {
          "internalType": "uint256",
          "name": "",
          "type": "uint256"
        }
      ],
      "stateMutability": "nonpayable",
      "type": "function"
    },
    {
      "inputs": [
        {
          "internalType": "uint256",
          "name": "tokenId",
          "type": "uint256"
        }
      ],
      "name": "getApproved",
      "outputs": [
        {
          "internalType": "address",
          "name": "",
          "type": "address"
        }
      ],
      "stateMutability": "view",
      "type": "function"
    },
    {
      "inputs": [],
      "name": "getcurrentnftid",
      "outputs": [
        {
          "internalType": "uint256",
          "name": "",
          "type": "uint256"
        }
      ],
      "stateMutability": "view",
      "type": "function"
    },
    {
      "inputs": [],
      "name": "getmynfts",
      "outputs": [
        {
          "internalType": "uint256[]",
          "name": "",
          "type": "uint256[]"
        }
      ],
      "stateMutability": "view",
      "type": "function"
    },
    {
      "inputs": [
        {
          "internalType": "address",
          "name": "owner",
          "type": "address"
        },
        {
          "internalType": "address",
          "name": "operator",
          "type": "address"
        }
      ],
      "name": "isApprovedForAll",
      "outputs": [
        {
          "internalType": "bool",
          "name": "",
          "type": "bool"
        }
      ],
      "stateMutability": "view",
      "type": "function"
    },
    {
      "inputs": [],
      "name": "name",
      "outputs": [
        {
          "internalType": "string",
          "name": "",
          "type": "string"
        }
      ],
      "stateMutability": "view",
      "type": "function"
    },
    {
      "inputs": [
        {
          "internalType": "uint256",
          "name": "tokenId",
          "type": "uint256"
        }
      ],
      "name": "ownerOf",
      "outputs": [
        {
          "internalType": "address",
          "name": "",
          "type": "address"
        }
      ],
      "stateMutability": "view",
      "type": "function"
    },
    {
      "inputs": [
        {
          "internalType": "address",
          "name": "from",
          "type": "address"
        },
        {
          "internalType": "address",
          "name": "to",
          "type": "address"
        },
        {
          "internalType": "uint256",
          "name": "tokenId",
          "type": "uint256"
        }
      ],
      "name": "safeTransferFrom",
      "outputs": [],
      "stateMutability": "nonpayable",
      "type": "function"
    },
    {
      "inputs": [
        {
          "internalType": "address",
          "name": "from",
          "type": "address"
        },
        {
          "internalType": "address",
          "name": "to",
          "type": "address"
        },
        {
          "internalType": "uint256",
          "name": "tokenId",
          "type": "uint256"
        },
        {
          "internalType": "bytes",
          "name": "data",
          "type": "bytes"
        }
      ],
      "name": "safeTransferFrom",
      "outputs": [],
      "stateMutability": "nonpayable",
      "type": "function"
    },
    {
      "inputs": [
        {
          "internalType": "address",
          "name": "operator",
          "type": "address"
        },
        {
          "internalType": "bool",
          "name": "approved",
          "type": "bool"
        }
      ],
      "name": "setApprovalForAll",
      "outputs": [],
      "stateMutability": "nonpayable",
      "type": "function"
    },
    {
      "inputs": [
        {
          "internalType": "bytes4",
          "name": "interfaceId",
          "type": "bytes4"
        }
      ],
      "name": "supportsInterface",
      "outputs": [
        {
          "internalType": "bool",
          "name": "",
          "type": "bool"
        }
      ],
      "stateMutability": "view",
      "type": "function"
    },
    {
      "inputs": [],
      "name": "symbol",
      "outputs": [
        {
          "internalType": "string",
          "name": "",
          "type": "string"
        }
      ],
      "stateMutability": "view",
      "type": "function"
    },
    {
      "inputs": [
        {
          "internalType": "uint256",
          "name": "tokenId",
          "type": "uint256"
        }
      ],
      "name": "tokenURI",
      "outputs": [
        {
          "internalType": "string",
          "name": "",
          "type": "string"
        }
      ],
      "stateMutability": "view",
      "type": "function"
    },
    {
      "inputs": [
        {
          "internalType": "address",
          "name": "from",
          "type": "address"
        },
        {
          "internalType": "address",
          "name": "to",
          "type": "address"
        },
        {
          "internalType": "uint256",
          "name": "tokenId",
          "type": "uint256"
        }
      ],
      "name": "transferFrom",
      "outputs": [],
      "stateMutability": "nonpayable",
      "type": "function"
    }
  ],
  "bytecode": "0x60806040523480156200001157600080fd5b50604051620019263803806200192683398101604081905262000034916200017a565b604080518082018252601481527f4e4654204d61726b6574706c616365204441505000000000000000000000000060208083019182528351808501909452600384526213935160ea1b9084015281519192916200009491600091620000d4565b508051620000aa906001906020840190620000d4565b5050600780546001600160a01b0319166001600160a01b03939093169290921790915550620001e9565b828054620000e290620001ac565b90600052602060002090601f01602090048101928262000106576000855562000151565b82601f106200012157805160ff191683800117855562000151565b8280016001018555821562000151579182015b828111156200015157825182559160200191906001019062000134565b506200015f92915062000163565b5090565b5b808211156200015f576000815560010162000164565b6000602082840312156200018d57600080fd5b81516001600160a01b0381168114620001a557600080fd5b9392505050565b600181811c90821680620001c157607f821691505b60208210811415620001e357634e487b7160e01b600052602260045260246000fd5b50919050565b61172d80620001f96000396000f3fe608060405234801561001057600080fd5b50600436106101005760003560e01c806370a0823111610097578063c87b56dd11610066578063c87b56dd1461021f578063da2ed03e14610232578063da68cdae14610245578063e985e9c51461024d57600080fd5b806370a08231146101d057806395d89b41146101f1578063a22cb465146101f9578063b88d4fde1461020c57600080fd5b806323b872dd116100d357806323b872dd14610182578063357de5931461019557806342842e0e146101aa5780636352211e146101bd57600080fd5b806301ffc9a71461010557806306fdde031461012d578063081812fc14610142578063095ea7b31461016d575b600080fd5b6101186101133660046111e4565b610289565b60405190151581526020015b60405180910390f35b6101356102db565b6040516101249190611259565b61015561015036600461126c565b61036d565b6040516001600160a01b039091168152602001610124565b61018061017b3660046112a1565b610394565b005b6101806101903660046112cb565b6104af565b61019d6104e0565b6040516101249190611307565b6101806101b83660046112cb565b610540565b6101556101cb36600461126c565b61055b565b6101e36101de36600461134b565b6105bb565b604051908152602001610124565b610135610641565b610180610207366004611366565b610650565b61018061021a36600461142e565b61065f565b61013561022d36600461126c565b610697565b6101e36102403660046114aa565b6107a8565b6009546101e3565b61011861025b3660046114f3565b6001600160a01b03918216600090815260056020908152604080832093909416825291909152205460ff1690565b60006001600160e01b031982166380ac58cd60e01b14806102ba57506001600160e01b03198216635b5e139f60e01b145b806102d557506301ffc9a760e01b6001600160e01b03198316145b92915050565b6060600080546102ea90611526565b80601f016020809104026020016040519081016040528092919081815260200182805461031690611526565b80156103635780601f1061033857610100808354040283529160200191610363565b820191906000526020600020905b81548152906001019060200180831161034657829003601f168201915b5050505050905090565b600061037882610819565b506000908152600460205260409020546001600160a01b031690565b600061039f8261055b565b9050806001600160a01b0316836001600160a01b031614156104125760405162461bcd60e51b815260206004820152602160248201527f4552433732313a20617070726f76616c20746f2063757272656e74206f776e656044820152603960f91b60648201526084015b60405180910390fd5b336001600160a01b038216148061042e575061042e813361025b565b6104a05760405162461bcd60e51b815260206004820152603d60248201527f4552433732313a20617070726f76652063616c6c6572206973206e6f7420746f60448201527f6b656e206f776e6572206f7220617070726f76656420666f7220616c6c0000006064820152608401610409565b6104aa838361087b565b505050565b6104b933826108e9565b6104d55760405162461bcd60e51b815260040161040990611561565b6104aa838383610967565b3360009081526008602090815260409182902080548351818402810184019094528084526060939283018282801561036357602002820191906000526020600020905b815481526020019060010190808311610523575050505050905090565b6104aa8383836040518060200160405280600081525061065f565b6000818152600260205260408120546001600160a01b0316806102d55760405162461bcd60e51b8152602060048201526018602482015277115490cdcc8c4e881a5b9d985b1a59081d1bdad95b88125160421b6044820152606401610409565b60006001600160a01b0382166106255760405162461bcd60e51b815260206004820152602960248201527f4552433732313a2061646472657373207a65726f206973206e6f7420612076616044820152683634b21037bbb732b960b91b6064820152608401610409565b506001600160a01b031660009081526003602052604090205490565b6060600180546102ea90611526565b61065b338383610acb565b5050565b61066933836108e9565b6106855760405162461bcd60e51b815260040161040990611561565b61069184848484610b9a565b50505050565b60606106a282610819565b600082815260066020526040812080546106bb90611526565b80601f01602080910402602001604051908101604052809291908181526020018280546106e790611526565b80156107345780601f1061070957610100808354040283529160200191610734565b820191906000526020600020905b81548152906001019060200180831161071757829003601f168201915b50505050509050600061075260408051602081019091526000815290565b9050805160001415610765575092915050565b81511561079757808260405160200161077f9291906115ae565b60405160208183030381529060405292505050919050565b6107a084610bcd565b949350505050565b60098054600091826107b9836115dd565b91905055506107ca33600954610c41565b6107d660095483610c5b565b6007546107ed906001600160a01b03166001610650565b505033600090815260086020908152604082206009805482546001810184559285529290932001555490565b6000818152600260205260409020546001600160a01b03166108785760405162461bcd60e51b8152602060048201526018602482015277115490cdcc8c4e881a5b9d985b1a59081d1bdad95b88125160421b6044820152606401610409565b50565b600081815260046020526040902080546001600160a01b0319166001600160a01b03841690811790915581906108b08261055b565b6001600160a01b03167f8c5be1e5ebec7d5bd14f71427d1e84f3dd0314c0f7b2291e5b200ac8c7c3b92560405160405180910390a45050565b6000806108f58361055b565b9050806001600160a01b0316846001600160a01b0316148061093c57506001600160a01b0380821660009081526005602090815260408083209388168352929052205460ff165b806107a05750836001600160a01b03166109558461036d565b6001600160a01b031614949350505050565b826001600160a01b031661097a8261055b565b6001600160a01b0316146109a05760405162461bcd60e51b815260040161040990611606565b6001600160a01b038216610a025760405162461bcd60e51b8152602060048201526024808201527f4552433732313a207472616e7366657220746f20746865207a65726f206164646044820152637265737360e01b6064820152608401610409565b826001600160a01b0316610a158261055b565b6001600160a01b031614610a3b5760405162461bcd60e51b815260040161040990611606565b600081815260046020908152604080832080546001600160a01b03199081169091556001600160a01b0387811680865260038552838620805460001901905590871680865283862080546001019055868652600290945282852080549092168417909155905184937fddf252ad1be2c89b69c2b068fc378daa952ba7f163c4a11628f55a4df523b3ef91a4505050565b816001600160a01b0316836001600160a01b03161415610b2d5760405162461bcd60e51b815260206004820152601960248201527f4552433732313a20617070726f766520746f2063616c6c6572000000000000006044820152606401610409565b6001600160a01b03838116600081815260056020908152604080832094871680845294825291829020805460ff191686151590811790915591519182527f17307eab39ab6107e8899845ad3d59bd9653f200f220920489ca2b5937696c31910160405180910390a3505050565b610ba5848484610967565b610bb184848484610cf5565b6106915760405162461bcd60e51b81526004016104099061164b565b6060610bd882610819565b6000610bef60408051602081019091526000815290565b90506000815111610c0f5760405180602001604052806000815250610c3a565b80610c1984610e02565b604051602001610c2a9291906115ae565b6040516020818303038152906040525b9392505050565b61065b828260405180602001604052806000815250610e9f565b6000828152600260205260409020546001600160a01b0316610cd65760405162461bcd60e51b815260206004820152602e60248201527f45524337323155524953746f726167653a2055524920736574206f66206e6f6e60448201526d32bc34b9ba32b73a103a37b5b2b760911b6064820152608401610409565b600082815260066020908152604090912082516104aa92840190611135565b60006001600160a01b0384163b15610df757604051630a85bd0160e11b81526001600160a01b0385169063150b7a0290610d3990339089908890889060040161169d565b602060405180830381600087803b158015610d5357600080fd5b505af1925050508015610d83575060408051601f3d908101601f19168201909252610d80918101906116da565b60015b610ddd573d808015610db1576040519150601f19603f3d011682016040523d82523d6000602084013e610db6565b606091505b508051610dd55760405162461bcd60e51b81526004016104099061164b565b805181602001fd5b6001600160e01b031916630a85bd0160e11b1490506107a0565b506001949350505050565b60606000610e0f83610ed2565b600101905060008167ffffffffffffffff811115610e2f57610e2f6113a2565b6040519080825280601f01601f191660200182016040528015610e59576020820181803683370190505b5090508181016020015b600019016f181899199a1a9b1b9c1cb0b131b232b360811b600a86061a8153600a8504945084610e9257610e97565b610e63565b509392505050565b610ea98383610faa565b610eb66000848484610cf5565b6104aa5760405162461bcd60e51b81526004016104099061164b565b60008072184f03e93ff9f4daa797ed6e38ed64bf6a1f0160401b8310610f115772184f03e93ff9f4daa797ed6e38ed64bf6a1f0160401b830492506040015b6d04ee2d6d415b85acef81000000008310610f3d576d04ee2d6d415b85acef8100000000830492506020015b662386f26fc100008310610f5b57662386f26fc10000830492506010015b6305f5e1008310610f73576305f5e100830492506008015b6127108310610f8757612710830492506004015b60648310610f99576064830492506002015b600a83106102d55760010192915050565b6001600160a01b0382166110005760405162461bcd60e51b815260206004820181905260248201527f4552433732313a206d696e7420746f20746865207a65726f20616464726573736044820152606401610409565b6000818152600260205260409020546001600160a01b0316156110655760405162461bcd60e51b815260206004820152601c60248201527f4552433732313a20746f6b656e20616c7265616479206d696e746564000000006044820152606401610409565b6000818152600260205260409020546001600160a01b0316156110ca5760405162461bcd60e51b815260206004820152601c60248201527f4552433732313a20746f6b656e20616c7265616479206d696e746564000000006044820152606401610409565b6001600160a01b038216600081815260036020908152604080832080546001019055848352600290915280822080546001600160a01b0319168417905551839291907fddf252ad1be2c89b69c2b068fc378daa952ba7f163c4a11628f55a4df523b3ef908290a45050565b82805461114190611526565b90600052602060002090601f01602090048101928261116357600085556111a9565b82601f1061117c57805160ff19168380011785556111a9565b828001600101855582156111a9579182015b828111156111a957825182559160200191906001019061118e565b506111b59291506111b9565b5090565b5b808211156111b557600081556001016111ba565b6001600160e01b03198116811461087857600080fd5b6000602082840312156111f657600080fd5b8135610c3a816111ce565b60005b8381101561121c578181015183820152602001611204565b838111156106915750506000910152565b60008151808452611245816020860160208601611201565b601f01601f19169290920160200192915050565b602081526000610c3a602083018461122d565b60006020828403121561127e57600080fd5b5035919050565b80356001600160a01b038116811461129c57600080fd5b919050565b600080604083850312156112b457600080fd5b6112bd83611285565b946020939093013593505050565b6000806000606084860312156112e057600080fd5b6112e984611285565b92506112f760208501611285565b9150604084013590509250925092565b6020808252825182820181905260009190848201906040850190845b8181101561133f57835183529284019291840191600101611323565b50909695505050505050565b60006020828403121561135d57600080fd5b610c3a82611285565b6000806040838503121561137957600080fd5b61138283611285565b91506020830135801515811461139757600080fd5b809150509250929050565b634e487b7160e01b600052604160045260246000fd5b600067ffffffffffffffff808411156113d3576113d36113a2565b604051601f8501601f19908116603f011681019082821181831017156113fb576113fb6113a2565b8160405280935085815286868601111561141457600080fd5b858560208301376000602087830101525050509392505050565b6000806000806080858703121561144457600080fd5b61144d85611285565b935061145b60208601611285565b925060408501359150606085013567ffffffffffffffff81111561147e57600080fd5b8501601f8101871361148f57600080fd5b61149e878235602084016113b8565b91505092959194509250565b6000602082840312156114bc57600080fd5b813567ffffffffffffffff8111156114d357600080fd5b8201601f810184136114e457600080fd5b6107a0848235602084016113b8565b6000806040838503121561150657600080fd5b61150f83611285565b915061151d60208401611285565b90509250929050565b600181811c9082168061153a57607f821691505b6020821081141561155b57634e487b7160e01b600052602260045260246000fd5b50919050565b6020808252602d908201527f4552433732313a2063616c6c6572206973206e6f7420746f6b656e206f776e6560408201526c1c881bdc88185c1c1c9bdd9959609a1b606082015260800190565b600083516115c0818460208801611201565b8351908301906115d4818360208801611201565b01949350505050565b60006000198214156115ff57634e487b7160e01b600052601160045260246000fd5b5060010190565b60208082526025908201527f4552433732313a207472616e736665722066726f6d20696e636f72726563742060408201526437bbb732b960d91b606082015260800190565b60208082526032908201527f4552433732313a207472616e7366657220746f206e6f6e20455243373231526560408201527131b2b4bb32b91034b6b83632b6b2b73a32b960711b606082015260800190565b6001600160a01b03858116825284166020820152604081018390526080606082018190526000906116d09083018461122d565b9695505050505050565b6000602082840312156116ec57600080fd5b8151610c3a816111ce56fea264697066735822122076e783ac75dba20a5fd14402391579d4804d6a216afcc355e8c8de478c1f006f64736f6c63430008090033",
  "linkReferences": {},
  "deployedLinkReferences": {}
}