{
  "_format": "hh-sol-artifact-1",
  "contractName": "NFTCreation",
  "sourceName": "contracts/NFTCreation.sol",
  "abi": [
    {
      "inputs": [
        {
          "internalType": "address",
          "name": "marketplace_contractaddress",
          "type": "address"
        }
      ],
      "stateMutability": "nonpayable",
      "type": "constructor"
    },
    {
      "anonymous": false,
      "inputs": [
        {
          "indexed": true,
          "internalType": "address",
          "name": "owner",
          "type": "address"
        },
        {
          "indexed": true,
          "internalType": "address",
          "name": "approved",
          "type": "address"
        },
        {
          "indexed": true,
          "internalType": "uint256",
          "name": "tokenId",
          "type": "uint256"
        }
      ],
      "name": "Approval",
      "type": "event"
    },
    {
      "anonymous": false,
      "inputs": [
        {
          "indexed": true,
          "internalType": "address",
          "name": "owner",
          "type": "address"
        },
        {
          "indexed": true,
          "internalType": "address",
          "name": "operator",
          "type": "address"
        },
        {
          "indexed": false,
          "internalType": "bool",
          "name": "approved",
          "type": "bool"
        }
      ],
      "name": "ApprovalForAll",
      "type": "event"
    },
    {
      "anonymous": false,
      "inputs": [
        {
          "indexed": true,
          "internalType": "address",
          "name": "from",
          "type": "address"
        },
        {
          "indexed": true,
          "internalType": "address",
          "name": "to",
          "type": "address"
        },
        {
          "indexed": true,
          "internalType": "uint256",
          "name": "tokenId",
          "type": "uint256"
        }
      ],
      "name": "Transfer",
      "type": "event"
    },
    {
      "inputs": [
        {
          "internalType": "address",
          "name": "to",
          "type": "address"
        },
        {
          "internalType": "uint256",
          "name": "tokenId",
          "type": "uint256"
        }
      ],
      "name": "approve",
      "outputs": [],
      "stateMutability": "nonpayable",
      "type": "function"
    },
    {
      "inputs": [
        {
          "internalType": "address",
          "name": "owner",
          "type": "address"
        }
      ],
      "name": "balanceOf",
      "outputs": [
        {
          "internalType": "uint256",
          "name": "",
          "type": "uint256"
        }
      ],
      "stateMutability": "view",
      "type": "function"
    },
    {
      "inputs": [
        {
          "internalType": "string",
          "name": "tokenuri",
          "type": "string"
        }
      ],
      "name": "createNFT",
      "outputs": [
        {
          "internalType": "uint256",
          "name": "",
          "type": "uint256"
        }
      ],
      "stateMutability": "nonpayable",
      "type": "function"
    },
    {
      "inputs": [
        {
          "internalType": "uint256",
          "name": "tokenId",
          "type": "uint256"
        }
      ],
      "name": "getApproved",
      "outputs": [
        {
          "internalType": "address",
          "name": "",
          "type": "address"
        }
      ],
      "stateMutability": "view",
      "type": "function"
    },
    {
      "inputs": [],
      "name": "getcurrentnftid",
      "outputs": [
        {
          "internalType": "uint256",
          "name": "",
          "type": "uint256"
        }
      ],
      "stateMutability": "view",
      "type": "function"
    },
    {
      "inputs": [],
      "name": "getmynfts",
      "outputs": [
        {
          "internalType": "uint256[]",
          "name": "",
          "type": "uint256[]"
        }
      ],
      "stateMutability": "view",
      "type": "function"
    },
    {
      "inputs": [
        {
          "internalType": "address",
          "name": "owner",
          "type": "address"
        },
        {
          "internalType": "address",
          "name": "operator",
          "type": "address"
        }
      ],
      "name": "isApprovedForAll",
      "outputs": [
        {
          "internalType": "bool",
          "name": "",
          "type": "bool"
        }
      ],
      "stateMutability": "view",
      "type": "function"
    },
    {
      "inputs": [],
      "name": "name",
      "outputs": [
        {
          "internalType": "string",
          "name": "",
          "type": "string"
        }
      ],
      "stateMutability": "view",
      "type": "function"
    },
    {
      "inputs": [
        {
          "internalType": "uint256",
          "name": "tokenId",
          "type": "uint256"
        }
      ],
      "name": "ownerOf",
      "outputs": [
        {
          "internalType": "address",
          "name": "",
          "type": "address"
        }
      ],
      "stateMutability": "view",
      "type": "function"
    },
    {
      "inputs": [
        {
          "internalType": "address",
          "name": "from",
          "type": "address"
        },
        {
          "internalType": "address",
          "name": "to",
          "type": "address"
        },
        {
          "internalType": "uint256",
          "name": "tokenId",
          "type": "uint256"
        }
      ],
      "name": "safeTransferFrom",
      "outputs": [],
      "stateMutability": "nonpayable",
      "type": "function"
    },
    {
      "inputs": [
        {
          "internalType": "address",
          "name": "from",
          "type": "address"
        },
        {
          "internalType": "address",
          "name": "to",
          "type": "address"
        },
        {
          "internalType": "uint256",
          "name": "tokenId",
          "type": "uint256"
        },
        {
          "internalType": "bytes",
          "name": "data",
          "type": "bytes"
        }
      ],
      "name": "safeTransferFrom",
      "outputs": [],
      "stateMutability": "nonpayable",
      "type": "function"
    },
    {
      "inputs": [
        {
          "internalType": "address",
          "name": "operator",
          "type": "address"
        },
        {
          "internalType": "bool",
          "name": "approved",
          "type": "bool"
        }
      ],
      "name": "setApprovalForAll",
      "outputs": [],
      "stateMutability": "nonpayable",
      "type": "function"
    },
    {
      "inputs": [
        {
          "internalType": "bytes4",
          "name": "interfaceId",
          "type": "bytes4"
        }
      ],
      "name": "supportsInterface",
      "outputs": [
        {
          "internalType": "bool",
          "name": "",
          "type": "bool"
        }
      ],
      "stateMutability": "view",
      "type": "function"
    },
    {
      "inputs": [],
      "name": "symbol",
      "outputs": [
        {
          "internalType": "string",
          "name": "",
          "type": "string"
        }
      ],
      "stateMutability": "view",
      "type": "function"
    },
    {
      "inputs": [
        {
          "internalType": "uint256",
          "name": "tokenId",
          "type": "uint256"
        }
      ],
      "name": "tokenURI",
      "outputs": [
        {
          "internalType": "string",
          "name": "",
          "type": "string"
        }
      ],
      "stateMutability": "view",
      "type": "function"
    },
    {
      "inputs": [
        {
          "internalType": "address",
          "name": "from",
          "type": "address"
        },
        {
          "internalType": "address",
          "name": "to",
          "type": "address"
        },
        {
          "internalType": "uint256",
          "name": "tokenId",
          "type": "uint256"
        }
      ],
      "name": "transferFrom",
      "outputs": [],
      "stateMutability": "nonpayable",
      "type": "function"
    }
  ],
  "bytecode": "0x60806040523480156200001157600080fd5b5060405162002e9938038062002e99833981810160405281019062000037919062000239565b6040518060400160405280601481526020017f4e4654204d61726b6574706c61636520444150500000000000000000000000008152506040518060400160405280600381526020017f4e4d4400000000000000000000000000000000000000000000000000000000008152508160009080519060200190620000bb9291906200011f565b508060019080519060200190620000d49291906200011f565b50505080600760006101000a81548173ffffffffffffffffffffffffffffffffffffffff021916908373ffffffffffffffffffffffffffffffffffffffff16021790555050620002d0565b8280546200012d906200029a565b90600052602060002090601f0160209004810192826200015157600085556200019d565b82601f106200016c57805160ff19168380011785556200019d565b828001600101855582156200019d579182015b828111156200019c5782518255916020019190600101906200017f565b5b509050620001ac9190620001b0565b5090565b5b80821115620001cb576000816000905550600101620001b1565b5090565b600080fd5b600073ffffffffffffffffffffffffffffffffffffffff82169050919050565b60006200020182620001d4565b9050919050565b6200021381620001f4565b81146200021f57600080fd5b50565b600081519050620002338162000208565b92915050565b600060208284031215620002525762000251620001cf565b5b6000620002628482850162000222565b91505092915050565b7f4e487b7100000000000000000000000000000000000000000000000000000000600052602260045260246000fd5b60006002820490506001821680620002b357607f821691505b60208210811415620002ca57620002c96200026b565b5b50919050565b612bb980620002e06000396000f3fe608060405234801561001057600080fd5b50600436106101005760003560e01c806370a0823111610097578063c87b56dd11610066578063c87b56dd146102ab578063da2ed03e146102db578063da68cdae1461030b578063e985e9c51461032957610100565b806370a082311461022557806395d89b4114610255578063a22cb46514610273578063b88d4fde1461028f57610100565b806323b872dd116100d357806323b872dd1461019f578063357de593146101bb57806342842e0e146101d95780636352211e146101f557610100565b806301ffc9a71461010557806306fdde0314610135578063081812fc14610153578063095ea7b314610183575b600080fd5b61011f600480360381019061011a9190611bd7565b610359565b60405161012c9190611c1f565b60405180910390f35b61013d61043b565b60405161014a9190611cd3565b60405180910390f35b61016d60048036038101906101689190611d2b565b6104cd565b60405161017a9190611d99565b60405180910390f35b61019d60048036038101906101989190611de0565b610513565b005b6101b960048036038101906101b49190611e20565b61062b565b005b6101c361068b565b6040516101d09190611f31565b60405180910390f35b6101f360048036038101906101ee9190611e20565b610720565b005b61020f600480360381019061020a9190611d2b565b610740565b60405161021c9190611d99565b60405180910390f35b61023f600480360381019061023a9190611f53565b6107c7565b60405161024c9190611f8f565b60405180910390f35b61025d61087f565b60405161026a9190611cd3565b60405180910390f35b61028d60048036038101906102889190611fd6565b610911565b005b6102a960048036038101906102a4919061214b565b610927565b005b6102c560048036038101906102c09190611d2b565b610989565b6040516102d29190611cd3565b60405180910390f35b6102f560048036038101906102f0919061226f565b610a9c565b6040516103029190611f8f565b60405180910390f35b610313610b6d565b6040516103209190611f8f565b60405180910390f35b610343600480360381019061033e91906122b8565b610b77565b6040516103509190611c1f565b60405180910390f35b60007f80ac58cd000000000000000000000000000000000000000000000000000000007bffffffffffffffffffffffffffffffffffffffffffffffffffffffff1916827bffffffffffffffffffffffffffffffffffffffffffffffffffffffff1916148061042457507f5b5e139f000000000000000000000000000000000000000000000000000000007bffffffffffffffffffffffffffffffffffffffffffffffffffffffff1916827bffffffffffffffffffffffffffffffffffffffffffffffffffffffff1916145b80610434575061043382610c0b565b5b9050919050565b60606000805461044a90612327565b80601f016020809104026020016040519081016040528092919081815260200182805461047690612327565b80156104c35780601f10610498576101008083540402835291602001916104c3565b820191906000526020600020905b8154815290600101906020018083116104a657829003601f168201915b5050505050905090565b60006104d882610c75565b6004600083815260200190815260200160002060009054906101000a900473ffffffffffffffffffffffffffffffffffffffff169050919050565b600061051e82610740565b90508073ffffffffffffffffffffffffffffffffffffffff168373ffffffffffffffffffffffffffffffffffffffff16141561058f576040517f08c379a0000000000000000000000000000000000000000000000000000000008152600401610586906123cb565b60405180910390fd5b8073ffffffffffffffffffffffffffffffffffffffff166105ae610cc0565b73ffffffffffffffffffffffffffffffffffffffff1614806105dd57506105dc816105d7610cc0565b610b77565b5b61061c576040517f08c379a00000000000000000000000000000000000000000000000000000000081526004016106139061245d565b60405180910390fd5b6106268383610cc8565b505050565b61063c610636610cc0565b82610d81565b61067b576040517f08c379a0000000000000000000000000000000000000000000000000000000008152600401610672906124ef565b60405180910390fd5b610686838383610e16565b505050565b6060600860003373ffffffffffffffffffffffffffffffffffffffff1673ffffffffffffffffffffffffffffffffffffffff16815260200190815260200160002080548060200260200160405190810160405280929190818152602001828054801561071657602002820191906000526020600020905b815481526020019060010190808311610702575b5050505050905090565b61073b83838360405180602001604052806000815250610927565b505050565b60008061074c8361110c565b9050600073ffffffffffffffffffffffffffffffffffffffff168173ffffffffffffffffffffffffffffffffffffffff1614156107be576040517f08c379a00000000000000000000000000000000000000000000000000000000081526004016107b59061255b565b60405180910390fd5b80915050919050565b60008073ffffffffffffffffffffffffffffffffffffffff168273ffffffffffffffffffffffffffffffffffffffff161415610838576040517f08c379a000000000000000000000000000000000000000000000000000000000815260040161082f906125ed565b60405180910390fd5b600360008373ffffffffffffffffffffffffffffffffffffffff1673ffffffffffffffffffffffffffffffffffffffff168152602001908152602001600020549050919050565b60606001805461088e90612327565b80601f01602080910402602001604051908101604052809291908181526020018280546108ba90612327565b80156109075780601f106108dc57610100808354040283529160200191610907565b820191906000526020600020905b8154815290600101906020018083116108ea57829003601f168201915b5050505050905090565b61092361091c610cc0565b8383611149565b5050565b610938610932610cc0565b83610d81565b610977576040517f08c379a000000000000000000000000000000000000000000000000000000000815260040161096e906124ef565b60405180910390fd5b610983848484846112b6565b50505050565b606061099482610c75565b60006006600084815260200190815260200160002080546109b490612327565b80601f01602080910402602001604051908101604052809291908181526020018280546109e090612327565b8015610a2d5780601f10610a0257610100808354040283529160200191610a2d565b820191906000526020600020905b815481529060010190602001808311610a1057829003601f168201915b505050505090506000610a3e611312565b9050600081511415610a54578192505050610a97565b600082511115610a89578082604051602001610a71929190612649565b60405160208183030381529060405292505050610a97565b610a9284611329565b925050505b919050565b600060096000815480929190610ab19061269c565b9190505550610ac233600954611391565b610ace600954836113af565b610afb600760009054906101000a900473ffffffffffffffffffffffffffffffffffffffff166001610911565b600860003373ffffffffffffffffffffffffffffffffffffffff1673ffffffffffffffffffffffffffffffffffffffff16815260200190815260200160002060095490806001815401808255809150506001900390600052602060002001600090919091909150556009549050919050565b6000600954905090565b6000600560008473ffffffffffffffffffffffffffffffffffffffff1673ffffffffffffffffffffffffffffffffffffffff16815260200190815260200160002060008373ffffffffffffffffffffffffffffffffffffffff1673ffffffffffffffffffffffffffffffffffffffff16815260200190815260200160002060009054906101000a900460ff16905092915050565b60007f01ffc9a7000000000000000000000000000000000000000000000000000000007bffffffffffffffffffffffffffffffffffffffffffffffffffffffff1916827bffffffffffffffffffffffffffffffffffffffffffffffffffffffff1916149050919050565b610c7e81611423565b610cbd576040517f08c379a0000000000000000000000000000000000000000000000000000000008152600401610cb49061255b565b60405180910390fd5b50565b600033905090565b816004600083815260200190815260200160002060006101000a81548173ffffffffffffffffffffffffffffffffffffffff021916908373ffffffffffffffffffffffffffffffffffffffff160217905550808273ffffffffffffffffffffffffffffffffffffffff16610d3b83610740565b73ffffffffffffffffffffffffffffffffffffffff167f8c5be1e5ebec7d5bd14f71427d1e84f3dd0314c0f7b2291e5b200ac8c7c3b92560405160405180910390a45050565b600080610d8d83610740565b90508073ffffffffffffffffffffffffffffffffffffffff168473ffffffffffffffffffffffffffffffffffffffff161480610dcf5750610dce8185610b77565b5b80610e0d57508373ffffffffffffffffffffffffffffffffffffffff16610df5846104cd565b73ffffffffffffffffffffffffffffffffffffffff16145b91505092915050565b8273ffffffffffffffffffffffffffffffffffffffff16610e3682610740565b73ffffffffffffffffffffffffffffffffffffffff1614610e8c576040517f08c379a0000000000000000000000000000000000000000000000000000000008152600401610e8390612757565b60405180910390fd5b600073ffffffffffffffffffffffffffffffffffffffff168273ffffffffffffffffffffffffffffffffffffffff161415610efc576040517f08c379a0000000000000000000000000000000000000000000000000000000008152600401610ef3906127e9565b60405180910390fd5b610f07838383611464565b8273ffffffffffffffffffffffffffffffffffffffff16610f2782610740565b73ffffffffffffffffffffffffffffffffffffffff1614610f7d576040517f08c379a0000000000000000000000000000000000000000000000000000000008152600401610f7490612757565b60405180910390fd5b6004600082815260200190815260200160002060006101000a81549073ffffffffffffffffffffffffffffffffffffffff02191690556001600360008573ffffffffffffffffffffffffffffffffffffffff1673ffffffffffffffffffffffffffffffffffffffff168152602001908152602001600020600082825403925050819055506001600360008473ffffffffffffffffffffffffffffffffffffffff1673ffffffffffffffffffffffffffffffffffffffff16815260200190815260200160002060008282540192505081905550816002600083815260200190815260200160002060006101000a81548173ffffffffffffffffffffffffffffffffffffffff021916908373ffffffffffffffffffffffffffffffffffffffff160217905550808273ffffffffffffffffffffffffffffffffffffffff168473ffffffffffffffffffffffffffffffffffffffff167fddf252ad1be2c89b69c2b068fc378daa952ba7f163c4a11628f55a4df523b3ef60405160405180910390a4611107838383611469565b505050565b60006002600083815260200190815260200160002060009054906101000a900473ffffffffffffffffffffffffffffffffffffffff169050919050565b8173ffffffffffffffffffffffffffffffffffffffff168373ffffffffffffffffffffffffffffffffffffffff1614156111b8576040517f08c379a00000000000000000000000000000000000000000000000000000000081526004016111af90612855565b60405180910390fd5b80600560008573ffffffffffffffffffffffffffffffffffffffff1673ffffffffffffffffffffffffffffffffffffffff16815260200190815260200160002060008473ffffffffffffffffffffffffffffffffffffffff1673ffffffffffffffffffffffffffffffffffffffff16815260200190815260200160002060006101000a81548160ff0219169083151502179055508173ffffffffffffffffffffffffffffffffffffffff168373ffffffffffffffffffffffffffffffffffffffff167f17307eab39ab6107e8899845ad3d59bd9653f200f220920489ca2b5937696c31836040516112a99190611c1f565b60405180910390a3505050565b6112c1848484610e16565b6112cd8484848461146e565b61130c576040517f08c379a0000000000000000000000000000000000000000000000000000000008152600401611303906128e7565b60405180910390fd5b50505050565b606060405180602001604052806000815250905090565b606061133482610c75565b600061133e611312565b9050600081511161135e5760405180602001604052806000815250611389565b8061136884611605565b604051602001611379929190612649565b6040516020818303038152906040525b915050919050565b6113ab8282604051806020016040528060008152506116dd565b5050565b6113b882611423565b6113f7576040517f08c379a00000000000000000000000000000000000000000000000000000000081526004016113ee90612979565b60405180910390fd5b8060066000848152602001908152602001600020908051906020019061141e929190611ac8565b505050565b60008073ffffffffffffffffffffffffffffffffffffffff166114458361110c565b73ffffffffffffffffffffffffffffffffffffffff1614159050919050565b505050565b505050565b600061148f8473ffffffffffffffffffffffffffffffffffffffff16611738565b156115f8578373ffffffffffffffffffffffffffffffffffffffff1663150b7a026114b8610cc0565b8786866040518563ffffffff1660e01b81526004016114da94939291906129ee565b602060405180830381600087803b1580156114f457600080fd5b505af192505050801561152557506040513d601f19601f820116820180604052508101906115229190612a4f565b60015b6115a8573d8060008114611555576040519150601f19603f3d011682016040523d82523d6000602084013e61155a565b606091505b506000815114156115a0576040517f08c379a0000000000000000000000000000000000000000000000000000000008152600401611597906128e7565b60405180910390fd5b805181602001fd5b63150b7a0260e01b7bffffffffffffffffffffffffffffffffffffffffffffffffffffffff1916817bffffffffffffffffffffffffffffffffffffffffffffffffffffffff1916149150506115fd565b600190505b949350505050565b6060600060016116148461175b565b01905060008167ffffffffffffffff81111561163357611632612020565b5b6040519080825280601f01601f1916602001820160405280156116655781602001600182028036833780820191505090505b509050600082602001820190505b6001156116d2578080600190039150507f3031323334353637383961626364656600000000000000000000000000000000600a86061a8153600a85816116bc576116bb612a7c565b5b04945060008514156116cd576116d2565b611673565b819350505050919050565b6116e783836118ae565b6116f4600084848461146e565b611733576040517f08c379a000000000000000000000000000000000000000000000000000000000815260040161172a906128e7565b60405180910390fd5b505050565b6000808273ffffffffffffffffffffffffffffffffffffffff163b119050919050565b600080600090507a184f03e93ff9f4daa797ed6e38ed64bf6a1f01000000000000000083106117b9577a184f03e93ff9f4daa797ed6e38ed64bf6a1f01000000000000000083816117af576117ae612a7c565b5b0492506040810190505b6d04ee2d6d415b85acef810000000083106117f6576d04ee2d6d415b85acef810000000083816117ec576117eb612a7c565b5b0492506020810190505b662386f26fc10000831061182557662386f26fc10000838161181b5761181a612a7c565b5b0492506010810190505b6305f5e100831061184e576305f5e100838161184457611843612a7c565b5b0492506008810190505b612710831061187357612710838161186957611868612a7c565b5b0492506004810190505b60648310611896576064838161188c5761188b612a7c565b5b0492506002810190505b600a83106118a5576001810190505b80915050919050565b600073ffffffffffffffffffffffffffffffffffffffff168273ffffffffffffffffffffffffffffffffffffffff16141561191e576040517f08c379a000000000000000000000000000000000000000000000000000000000815260040161191590612af7565b60405180910390fd5b61192781611423565b15611967576040517f08c379a000000000000000000000000000000000000000000000000000000000815260040161195e90612b63565b60405180910390fd5b61197360008383611464565b61197c81611423565b156119bc576040517f08c379a00000000000000000000000000000000000000000000000000000000081526004016119b390612b63565b60405180910390fd5b6001600360008473ffffffffffffffffffffffffffffffffffffffff1673ffffffffffffffffffffffffffffffffffffffff16815260200190815260200160002060008282540192505081905550816002600083815260200190815260200160002060006101000a81548173ffffffffffffffffffffffffffffffffffffffff021916908373ffffffffffffffffffffffffffffffffffffffff160217905550808273ffffffffffffffffffffffffffffffffffffffff16600073ffffffffffffffffffffffffffffffffffffffff167fddf252ad1be2c89b69c2b068fc378daa952ba7f163c4a11628f55a4df523b3ef60405160405180910390a4611ac460008383611469565b5050565b828054611ad490612327565b90600052602060002090601f016020900481019282611af65760008555611b3d565b82601f10611b0f57805160ff1916838001178555611b3d565b82800160010185558215611b3d579182015b82811115611b3c578251825591602001919060010190611b21565b5b509050611b4a9190611b4e565b5090565b5b80821115611b67576000816000905550600101611b4f565b5090565b6000604051905090565b600080fd5b600080fd5b60007fffffffff0000000000000000000000000000000000000000000000000000000082169050919050565b611bb481611b7f565b8114611bbf57600080fd5b50565b600081359050611bd181611bab565b92915050565b600060208284031215611bed57611bec611b75565b5b6000611bfb84828501611bc2565b91505092915050565b60008115159050919050565b611c1981611c04565b82525050565b6000602082019050611c346000830184611c10565b92915050565b600081519050919050565b600082825260208201905092915050565b60005b83811015611c74578082015181840152602081019050611c59565b83811115611c83576000848401525b50505050565b6000601f19601f8301169050919050565b6000611ca582611c3a565b611caf8185611c45565b9350611cbf818560208601611c56565b611cc881611c89565b840191505092915050565b60006020820190508181036000830152611ced8184611c9a565b905092915050565b6000819050919050565b611d0881611cf5565b8114611d1357600080fd5b50565b600081359050611d2581611cff565b92915050565b600060208284031215611d4157611d40611b75565b5b6000611d4f84828501611d16565b91505092915050565b600073ffffffffffffffffffffffffffffffffffffffff82169050919050565b6000611d8382611d58565b9050919050565b611d9381611d78565b82525050565b6000602082019050611dae6000830184611d8a565b92915050565b611dbd81611d78565b8114611dc857600080fd5b50565b600081359050611dda81611db4565b92915050565b60008060408385031215611df757611df6611b75565b5b6000611e0585828601611dcb565b9250506020611e1685828601611d16565b9150509250929050565b600080600060608486031215611e3957611e38611b75565b5b6000611e4786828701611dcb565b9350506020611e5886828701611dcb565b9250506040611e6986828701611d16565b9150509250925092565b600081519050919050565b600082825260208201905092915050565b6000819050602082019050919050565b611ea881611cf5565b82525050565b6000611eba8383611e9f565b60208301905092915050565b6000602082019050919050565b6000611ede82611e73565b611ee88185611e7e565b9350611ef383611e8f565b8060005b83811015611f24578151611f0b8882611eae565b9750611f1683611ec6565b925050600181019050611ef7565b5085935050505092915050565b60006020820190508181036000830152611f4b8184611ed3565b905092915050565b600060208284031215611f6957611f68611b75565b5b6000611f7784828501611dcb565b91505092915050565b611f8981611cf5565b82525050565b6000602082019050611fa46000830184611f80565b92915050565b611fb381611c04565b8114611fbe57600080fd5b50565b600081359050611fd081611faa565b92915050565b60008060408385031215611fed57611fec611b75565b5b6000611ffb85828601611dcb565b925050602061200c85828601611fc1565b9150509250929050565b600080fd5b600080fd5b7f4e487b7100000000000000000000000000000000000000000000000000000000600052604160045260246000fd5b61205882611c89565b810181811067ffffffffffffffff8211171561207757612076612020565b5b80604052505050565b600061208a611b6b565b9050612096828261204f565b919050565b600067ffffffffffffffff8211156120b6576120b5612020565b5b6120bf82611c89565b9050602081019050919050565b82818337600083830152505050565b60006120ee6120e98461209b565b612080565b90508281526020810184848401111561210a5761210961201b565b5b6121158482856120cc565b509392505050565b600082601f83011261213257612131612016565b5b81356121428482602086016120db565b91505092915050565b6000806000806080858703121561216557612164611b75565b5b600061217387828801611dcb565b945050602061218487828801611dcb565b935050604061219587828801611d16565b925050606085013567ffffffffffffffff8111156121b6576121b5611b7a565b5b6121c28782880161211d565b91505092959194509250565b600067ffffffffffffffff8211156121e9576121e8612020565b5b6121f282611c89565b9050602081019050919050565b600061221261220d846121ce565b612080565b90508281526020810184848401111561222e5761222d61201b565b5b6122398482856120cc565b509392505050565b600082601f83011261225657612255612016565b5b81356122668482602086016121ff565b91505092915050565b60006020828403121561228557612284611b75565b5b600082013567ffffffffffffffff8111156122a3576122a2611b7a565b5b6122af84828501612241565b91505092915050565b600080604083850312156122cf576122ce611b75565b5b60006122dd85828601611dcb565b92505060206122ee85828601611dcb565b9150509250929050565b7f4e487b7100000000000000000000000000000000000000000000000000000000600052602260045260246000fd5b6000600282049050600182168061233f57607f821691505b60208210811415612353576123526122f8565b5b50919050565b7f4552433732313a20617070726f76616c20746f2063757272656e74206f776e6560008201527f7200000000000000000000000000000000000000000000000000000000000000602082015250565b60006123b5602183611c45565b91506123c082612359565b604082019050919050565b600060208201905081810360008301526123e4816123a8565b9050919050565b7f4552433732313a20617070726f76652063616c6c6572206973206e6f7420746f60008201527f6b656e206f776e6572206f7220617070726f76656420666f7220616c6c000000602082015250565b6000612447603d83611c45565b9150612452826123eb565b604082019050919050565b600060208201905081810360008301526124768161243a565b9050919050565b7f4552433732313a2063616c6c6572206973206e6f7420746f6b656e206f776e6560008201527f72206f7220617070726f76656400000000000000000000000000000000000000602082015250565b60006124d9602d83611c45565b91506124e48261247d565b604082019050919050565b60006020820190508181036000830152612508816124cc565b9050919050565b7f4552433732313a20696e76616c696420746f6b656e2049440000000000000000600082015250565b6000612545601883611c45565b91506125508261250f565b602082019050919050565b6000602082019050818103600083015261257481612538565b9050919050565b7f4552433732313a2061646472657373207a65726f206973206e6f74206120766160008201527f6c6964206f776e65720000000000000000000000000000000000000000000000602082015250565b60006125d7602983611c45565b91506125e28261257b565b604082019050919050565b60006020820190508181036000830152612606816125ca565b9050919050565b600081905092915050565b600061262382611c3a565b61262d818561260d565b935061263d818560208601611c56565b80840191505092915050565b60006126558285612618565b91506126618284612618565b91508190509392505050565b7f4e487b7100000000000000000000000000000000000000000000000000000000600052601160045260246000fd5b60006126a782611cf5565b91507fffffffffffffffffffffffffffffffffffffffffffffffffffffffffffffffff8214156126da576126d961266d565b5b600182019050919050565b7f4552433732313a207472616e736665722066726f6d20696e636f72726563742060008201527f6f776e6572000000000000000000000000000000000000000000000000000000602082015250565b6000612741602583611c45565b915061274c826126e5565b604082019050919050565b6000602082019050818103600083015261277081612734565b9050919050565b7f4552433732313a207472616e7366657220746f20746865207a65726f2061646460008201527f7265737300000000000000000000000000000000000000000000000000000000602082015250565b60006127d3602483611c45565b91506127de82612777565b604082019050919050565b60006020820190508181036000830152612802816127c6565b9050919050565b7f4552433732313a20617070726f766520746f2063616c6c657200000000000000600082015250565b600061283f601983611c45565b915061284a82612809565b602082019050919050565b6000602082019050818103600083015261286e81612832565b9050919050565b7f4552433732313a207472616e7366657220746f206e6f6e20455243373231526560008201527f63656976657220696d706c656d656e7465720000000000000000000000000000602082015250565b60006128d1603283611c45565b91506128dc82612875565b604082019050919050565b60006020820190508181036000830152612900816128c4565b9050919050565b7f45524337323155524953746f726167653a2055524920736574206f66206e6f6e60008201527f6578697374656e7420746f6b656e000000000000000000000000000000000000602082015250565b6000612963602e83611c45565b915061296e82612907565b604082019050919050565b6000602082019050818103600083015261299281612956565b9050919050565b600081519050919050565b600082825260208201905092915050565b60006129c082612999565b6129ca81856129a4565b93506129da818560208601611c56565b6129e381611c89565b840191505092915050565b6000608082019050612a036000830187611d8a565b612a106020830186611d8a565b612a1d6040830185611f80565b8181036060830152612a2f81846129b5565b905095945050505050565b600081519050612a4981611bab565b92915050565b600060208284031215612a6557612a64611b75565b5b6000612a7384828501612a3a565b91505092915050565b7f4e487b7100000000000000000000000000000000000000000000000000000000600052601260045260246000fd5b7f4552433732313a206d696e7420746f20746865207a65726f2061646472657373600082015250565b6000612ae1602083611c45565b9150612aec82612aab565b602082019050919050565b60006020820190508181036000830152612b1081612ad4565b9050919050565b7f4552433732313a20746f6b656e20616c7265616479206d696e74656400000000600082015250565b6000612b4d601c83611c45565b9150612b5882612b17565b602082019050919050565b60006020820190508181036000830152612b7c81612b40565b905091905056fea2646970667358221220bf1b47f2df6eec98161929365d32af4350321ec9ef8805b24c834693b666322164736f6c63430008090033",
  "linkReferences": {},
  "deployedLinkReferences": {}
}