{
  "_format": "hh-sol-artifact-1",
  "contractName": "NFTMarketplace",
  "sourceName": "contracts/NFTMarketplace.sol",
  "abi": [
    {
      "inputs": [
        {
          "internalType": "uint256",
          "name": "_feespercentage",
          "type": "uint256"
        },
        {
          "internalType": "address",
          "name": "rewardtokenaddress",
          "type": "address"
        }
      ],
      "stateMutability": "nonpayable",
      "type": "constructor"
    },
    {
      "anonymous": false,
      "inputs": [
        {
          "indexed": false,
          "internalType": "uint256",
          "name": "itemid",
          "type": "uint256"
        },
        {
          "indexed": true,
          "internalType": "address",
          "name": "nftcontractaddress",
          "type": "address"
        },
        {
          "indexed": false,
          "internalType": "uint256",
          "name": "tokenid",
          "type": "uint256"
        },
        {
          "indexed": true,
          "internalType": "address",
          "name": "seller",
          "type": "address"
        },
        {
          "indexed": true,
          "internalType": "address",
          "name": "buyer",
          "type": "address"
        },
        {
          "indexed": false,
          "internalType": "uint256",
          "name": "price",
          "type": "uint256"
        }
      ],
      "name": "buyingnft",
      "type": "event"
    },
    {
      "anonymous": false,
      "inputs": [
        {
          "indexed": false,
          "internalType": "uint256",
          "name": "itemid",
          "type": "uint256"
        },
        {
          "indexed": true,
          "internalType": "address",
          "name": "nftcontractaddress",
          "type": "address"
        },
        {
          "indexed": false,
          "internalType": "uint256",
          "name": "tokenid",
          "type": "uint256"
        },
        {
          "indexed": true,
          "internalType": "address",
          "name": "seller",
          "type": "address"
        },
        {
          "indexed": false,
          "internalType": "uint256",
          "name": "price",
          "type": "uint256"
        }
      ],
      "name": "sellnft",
      "type": "event"
    },
    {
      "inputs": [
        {
          "internalType": "uint256",
          "name": "marketitemid",
          "type": "uint256"
        }
      ],
      "name": "buynft",
      "outputs": [],
      "stateMutability": "payable",
      "type": "function"
    },
    {
      "inputs": [],
      "name": "cancelstaking",
      "outputs": [],
      "stateMutability": "nonpayable",
      "type": "function"
    },
    {
      "inputs": [
        {
          "internalType": "address",
          "name": "nftcontractaddress",
          "type": "address"
        }
      ],
      "name": "claimnftonly_withoutrewards",
      "outputs": [],
      "stateMutability": "nonpayable",
      "type": "function"
    },
    {
      "inputs": [
        {
          "internalType": "address",
          "name": "nftcontractaddress",
          "type": "address"
        }
      ],
      "name": "claimrewards",
      "outputs": [],
      "stateMutability": "nonpayable",
      "type": "function"
    },
    {
      "inputs": [
        {
          "internalType": "uint256",
          "name": "marketitemid",
          "type": "uint256"
        }
      ],
      "name": "getmarketdata",
      "outputs": [
        {
          "components": [
            {
              "internalType": "uint256",
              "name": "itemid",
              "type": "uint256"
            },
            {
              "internalType": "address",
              "name": "nftcontractaddress",
              "type": "address"
            },
            {
              "internalType": "uint256",
              "name": "tokenid",
              "type": "uint256"
            },
            {
              "internalType": "address payable",
              "name": "seller",
              "type": "address"
            },
            {
              "internalType": "uint256",
              "name": "price",
              "type": "uint256"
            },
            {
              "internalType": "bool",
              "name": "issold",
              "type": "bool"
            },
            {
              "internalType": "bool",
              "name": "islisted",
              "type": "bool"
            }
          ],
          "internalType": "struct NFTMarketplace.nftmarketitem",
          "name": "",
          "type": "tuple"
        }
      ],
      "stateMutability": "view",
      "type": "function"
    },
    {
      "inputs": [],
      "name": "gettotalcountitems",
      "outputs": [
        {
          "internalType": "uint256",
          "name": "",
          "type": "uint256"
        }
      ],
      "stateMutability": "view",
      "type": "function"
    },
    {
      "inputs": [
        {
          "internalType": "address",
          "name": "nftcontractaddress",
          "type": "address"
        },
        {
          "internalType": "uint256",
          "name": "tokenid",
          "type": "uint256"
        },
        {
          "internalType": "uint256",
          "name": "price",
          "type": "uint256"
        }
      ],
      "name": "listnft",
      "outputs": [],
      "stateMutability": "nonpayable",
      "type": "function"
    },
    {
      "inputs": [
        {
          "internalType": "address",
          "name": "nftcontractaddress",
          "type": "address"
        },
        {
          "internalType": "uint256",
          "name": "tokenid",
          "type": "uint256"
        }
      ],
      "name": "stakeNFT",
      "outputs": [],
      "stateMutability": "nonpayable",
      "type": "function"
    },
    {
      "inputs": [],
      "name": "startstaking",
      "outputs": [],
      "stateMutability": "nonpayable",
      "type": "function"
    },
    {
      "inputs": [
        {
          "internalType": "uint256",
          "name": "marketitemid",
          "type": "uint256"
        }
      ],
      "name": "totalpricewith_marketfees",
      "outputs": [
        {
          "internalType": "uint256",
          "name": "",
          "type": "uint256"
        }
      ],
      "stateMutability": "view",
      "type": "function"
    }
  ],
  "bytecode": "0x6080604052603c600755603c600c5534801561001a57600080fd5b5060405161127c38038061127c83398101604081905261003991610084565b6001600055600382905560028054336001600160a01b031991821617909155600580549091166001600160a01b03831617905560075461007990426100c1565b600655506100e79050565b6000806040838503121561009757600080fd5b825160208401519092506001600160a01b03811681146100b657600080fd5b809150509250929050565b600082198211156100e257634e487b7160e01b600052601160045260246000fd5b500190565b611186806100f66000396000f3fe6080604052600436106100915760003560e01c8063ae80fe1211610059578063ae80fe1214610128578063b13270d51461013d578063b90878b31461015d578063cd8d90661461017d578063d2a78f6d1461019d57600080fd5b80632af31c38146100965780633653d4d0146100c9578063457b1ae2146100e057806365eadf10146100f5578063a874634514610115575b600080fd5b3480156100a257600080fd5b506100b66100b1366004610fb5565b6102d2565b6040519081526020015b60405180910390f35b3480156100d557600080fd5b506100de610313565b005b3480156100ec57600080fd5b506001546100b6565b34801561010157600080fd5b506100de610110366004610fea565b610411565b6100de610123366004610fb5565b610599565b34801561013457600080fd5b506100de6108ad565b34801561014957600080fd5b506100de61015836600461100c565b61092f565b34801561016957600080fd5b506100de610178366004610fea565b610a89565b34801561018957600080fd5b506100de610198366004611036565b610d0e565b3480156101a957600080fd5b5061026a6101b8366004610fb5565b6040805160e081018252600080825260208201819052918101829052606081018290526080810182905260a0810182905260c081019190915250600090815260046020818152604092839020835160e0810185528154815260018201546001600160a01b0390811693820193909352600282015494810194909452600381015490911660608401529081015460808301526005015460ff808216151560a084015261010090910416151560c082015290565b6040516100c09190600060e08201905082518252602083015160018060a01b0380821660208501526040850151604085015280606086015116606085015250506080830151608083015260a0830151151560a083015260c0830151151560c083015292915050565b60008181526004602081905260408220015460035482906102f490606461107f565b6102fe9083611097565b905061030b6064826110b6565b949350505050565b3360009081526008602052604090205460ff16151560011461037c5760405162461bcd60e51b815260206004820152601860248201527f596f7520646964206e6f74206465706f736974204e465473000000000000000060448201526064015b60405180910390fd5b600b5442106103f5576040805162461bcd60e51b81526020600482015260248101919091527f596f7520636f756c64206e6f74206e6f742063616e63656c206c6f636b696e6760448201527f2c20776974686472617720796f7572206e667420776974682070726f666974736064820152608401610373565b336000908152600960205260409020805460ff19166001179055565b3360009081526008602052604090205460ff1615156001146104755760405162461bcd60e51b815260206004820181905260248201527f596f7520646964206e6f74206465706f736974206c6f636b656420746f6b656e6044820152606401610373565b3360009081526009602052604090205460ff1615156001146104ff5760405162461bcd60e51b815260206004820152603c60248201527f546f20776974686472617720776974686f7574207265776172642c20796f752060448201527f6861766520746f2063616e63656c206c6f636b696e67206669727374000000006064820152608401610373565b336000818152600a602090815260408083206001600160a01b0386168085529252918290205491516323b872dd60e01b8152919290916323b872dd9161054c9130919086906004016110d8565b600060405180830381600087803b15801561056657600080fd5b505af115801561057a573d6000803e3d6000fd5b5050336000908152600860205260409020805460ff1916905550505050565b6105a1610f5b565b6000811180156105b357506001548111155b6105f85760405162461bcd60e51b81526020600482015260166024820152751a5b9d985b1a59081b585c9ad95d081a5d195b481a5960521b6044820152606401610373565b6000818152600460205260409020600301546001600160a01b03163314156106625760405162461bcd60e51b815260206004820152601760248201527f62757965722063616e206e6f742062652073656c6c65720000000000000000006044820152606401610373565b600061066d826102d2565b60008381526004602052604090209091503482146106cd5760405162461bcd60e51b815260206004820152601860248201527f50617920776861742073656c6c657220726571756972657300000000000000006044820152606401610373565b600581015460ff16156107225760405162461bcd60e51b815260206004820152601860248201527f74686973206e667420697320616c726561647920736f6c6400000000000000006044820152606401610373565b600381015460048201546040516001600160a01b039092169181156108fc0291906000818181858888f19350505050158015610762573d6000803e3d6000fd5b5060025460048201546001600160a01b03909116906108fc9061078590856110fc565b6040518115909202916000818181858888f193505050501580156107ad573d6000803e3d6000fd5b50600181015460028201546040516323b872dd60e01b81526001600160a01b03909216916323b872dd916107e791309133916004016110d8565b600060405180830381600087803b15801561080157600080fd5b505af1158015610815573d6000803e3d6000fd5b505050506005810180546003830180546001600160a01b0319163390811790915561ffff199091166001908117909255908201546002830154600484015460408051888152602081019390935282015282916001600160a01b0316907fedefbe5719e3e26fd52f9d1ab9dcd6c74a92c4458e11a87ddf7cfd13dc906d0d9060600160405180910390a450506108aa6001600055565b50565b6002546001600160a01b0316331461091d5760405162461bcd60e51b815260206004820152602d60248201527f4f6e6c7920636f6e7472616374206465706c6f7965722063616e2063616c6c2060448201526c3a3434b990333ab731ba34b7b760991b6064820152608401610373565b60075461092a904261107f565b600655565b60065442111561098d5760405162461bcd60e51b815260206004820152602360248201527f6475726174696f6e20746f206465706f73697420686173206265656e207061736044820152621cd95960ea1b6064820152608401610373565b6040516323b872dd60e01b81526001600160a01b038316906323b872dd906109bd903390309086906004016110d8565b600060405180830381600087803b1580156109d757600080fd5b505af11580156109eb573d6000803e3d6000fd5b5050336000908152600860205260409020805460ff191660011790555050600c54600654610a19919061107f565b600b55336000818152600a602090815260408083206001600160a01b0396909616835294905292832091909155600d805460018101825592527fd7b6990105719101dabeb77144f2a3385c8033acd3af97e9423a695e81ad1eb590910180546001600160a01b0319169091179055565b3360009081526008602052604090205460ff161515600114610ae65760405162461bcd60e51b8152602060048201526016602482015275596f7520646964206e6f74207374616b65204e46547360501b6044820152606401610373565b3360009081526009602052604090205460ff1615610b825760405162461bcd60e51b815260206004820152604d60248201527f596f7520686176652063616e63656c656420746865207374616b696e672c207960448201527f6f75206172652061626c6520746f20776974686472617720776974686f75742060648201526c72657761726420746f6b656e7360981b608482015260a401610373565b600b54421015610be75760405162461bcd60e51b815260206004820152602a60248201527f7761697420756e74696c207468652074696d65206f662074616b696e672070726044820152696f66697420636f6d657360b01b6064820152608401610373565b336000818152600a602090815260408083206001600160a01b0386168085529252918290205491516323b872dd60e01b8152919290916323b872dd91610c349130919086906004016110d8565b600060405180830381600087803b158015610c4e57600080fd5b505af1158015610c62573d6000803e3d6000fd5b505060055460405163a9059cbb60e01b815233600482015268056bc75e2d6310000060248201526001600160a01b03909116925063a9059cbb9150604401602060405180830381600087803b158015610cba57600080fd5b505af1158015610cce573d6000803e3d6000fd5b505050506040513d601f19601f82011682018060405250810190610cf29190611113565b5050336000908152600860205260409020805460ff1916905550565b610d16610f5b565b60008111610d665760405162461bcd60e51b815260206004820152601b60248201527f70726963652073686f756c642067726561746572207468616e203000000000006044820152606401610373565b60018054906000610d7683611135565b9091555050600154600090815260046020526040902060050154610100900460ff1615610de55760405162461bcd60e51b815260206004820152601760248201527f206974656d20697320616c7265616479206c69737465640000000000000000006044820152606401610373565b6040805160e081018252600180548083526001600160a01b0380881660208086018281528688018a8152336060890181815260808a018c8152600060a08c0181815260c08d018c81529a8252600497889052908d90209b518c559451998b0180549a89166001600160a01b03199b8c16179055925160028b01555160038a01805491909716981697909717909455925186820155915160059095018054935115156101000261ff00199615159690961661ffff19909416939093179490941790915592516323b872dd60e01b815291926323b872dd92610eca929130918891016110d8565b600060405180830381600087803b158015610ee457600080fd5b505af1158015610ef8573d6000803e3d6000fd5b5050600154604080519182526020820186905281018490523392506001600160a01b03861691507f894171a2dfd4a1203bedc1e954dbafa2b0d42c117dcbde7a45ed0adfd8f637859060600160405180910390a3610f566001600055565b505050565b60026000541415610fae5760405162461bcd60e51b815260206004820152601f60248201527f5265656e7472616e637947756172643a207265656e7472616e742063616c6c006044820152606401610373565b6002600055565b600060208284031215610fc757600080fd5b5035919050565b80356001600160a01b0381168114610fe557600080fd5b919050565b600060208284031215610ffc57600080fd5b61100582610fce565b9392505050565b6000806040838503121561101f57600080fd5b61102883610fce565b946020939093013593505050565b60008060006060848603121561104b57600080fd5b61105484610fce565b95602085013595506040909401359392505050565b634e487b7160e01b600052601160045260246000fd5b6000821982111561109257611092611069565b500190565b60008160001904831182151516156110b1576110b1611069565b500290565b6000826110d357634e487b7160e01b600052601260045260246000fd5b500490565b6001600160a01b039384168152919092166020820152604081019190915260600190565b60008282101561110e5761110e611069565b500390565b60006020828403121561112557600080fd5b8151801515811461100557600080fd5b600060001982141561114957611149611069565b506001019056fea2646970667358221220332546b7843af1e83d87175656ea13fa12ea8a63d2b4b0003b189e7512db19f464736f6c63430008090033",
  "linkReferences": {},
  "deployedLinkReferences": {}
}