{
  "_format": "hh-sol-artifact-1",
  "contractName": "NFTMarketplace",
  "sourceName": "contracts/NFTMarketplace.sol",
  "abi": [
    {
      "inputs": [
        {
          "internalType": "uint256",
          "name": "_feespercentage",
          "type": "uint256"
        },
        {
          "internalType": "address",
          "name": "rewardtokenaddress",
          "type": "address"
        }
      ],
      "stateMutability": "nonpayable",
      "type": "constructor"
    },
    {
      "anonymous": false,
      "inputs": [
        {
          "indexed": false,
          "internalType": "uint256",
          "name": "itemid",
          "type": "uint256"
        },
        {
          "indexed": true,
          "internalType": "address",
          "name": "nftcontractaddress",
          "type": "address"
        },
        {
          "indexed": false,
          "internalType": "uint256",
          "name": "tokenid",
          "type": "uint256"
        },
        {
          "indexed": true,
          "internalType": "address",
          "name": "seller",
          "type": "address"
        },
        {
          "indexed": true,
          "internalType": "address",
          "name": "buyer",
          "type": "address"
        },
        {
          "indexed": false,
          "internalType": "uint256",
          "name": "price",
          "type": "uint256"
        }
      ],
      "name": "buyingnft",
      "type": "event"
    },
    {
      "anonymous": false,
      "inputs": [
        {
          "indexed": false,
          "internalType": "uint256",
          "name": "itemid",
          "type": "uint256"
        },
        {
          "indexed": true,
          "internalType": "address",
          "name": "nftcontractaddress",
          "type": "address"
        },
        {
          "indexed": false,
          "internalType": "uint256",
          "name": "tokenid",
          "type": "uint256"
        },
        {
          "indexed": true,
          "internalType": "address",
          "name": "seller",
          "type": "address"
        },
        {
          "indexed": false,
          "internalType": "uint256",
          "name": "price",
          "type": "uint256"
        }
      ],
      "name": "sellnft",
      "type": "event"
    },
    {
      "inputs": [
        {
          "internalType": "uint256",
          "name": "marketitemid",
          "type": "uint256"
        }
      ],
      "name": "buynft",
      "outputs": [],
      "stateMutability": "payable",
      "type": "function"
    },
    {
      "inputs": [],
      "name": "cancelstaking",
      "outputs": [],
      "stateMutability": "nonpayable",
      "type": "function"
    },
    {
      "inputs": [
        {
          "internalType": "address",
          "name": "nftcontractaddress",
          "type": "address"
        }
      ],
      "name": "claimnftonly_withoutrewards",
      "outputs": [],
      "stateMutability": "nonpayable",
      "type": "function"
    },
    {
      "inputs": [
        {
          "internalType": "address",
          "name": "nftcontractaddress",
          "type": "address"
        }
      ],
      "name": "claimrewards",
      "outputs": [],
      "stateMutability": "nonpayable",
      "type": "function"
    },
    {
      "inputs": [
        {
          "internalType": "uint256",
          "name": "marketitemid",
          "type": "uint256"
        }
      ],
      "name": "getmarketdata",
      "outputs": [
        {
          "components": [
            {
              "internalType": "uint256",
              "name": "itemid",
              "type": "uint256"
            },
            {
              "internalType": "address",
              "name": "nftcontractaddress",
              "type": "address"
            },
            {
              "internalType": "uint256",
              "name": "tokenid",
              "type": "uint256"
            },
            {
              "internalType": "address payable",
              "name": "seller",
              "type": "address"
            },
            {
              "internalType": "uint256",
              "name": "price",
              "type": "uint256"
            },
            {
              "internalType": "bool",
              "name": "issold",
              "type": "bool"
            },
            {
              "internalType": "bool",
              "name": "islisted",
              "type": "bool"
            }
          ],
          "internalType": "struct NFTMarketplace.nftmarketitem",
          "name": "",
          "type": "tuple"
        }
      ],
      "stateMutability": "view",
      "type": "function"
    },
    {
      "inputs": [],
      "name": "gettotalcountitems",
      "outputs": [
        {
          "internalType": "uint256",
          "name": "",
          "type": "uint256"
        }
      ],
      "stateMutability": "view",
      "type": "function"
    },
    {
      "inputs": [
        {
          "internalType": "address",
          "name": "nftcontractaddress",
          "type": "address"
        },
        {
          "internalType": "uint256",
          "name": "tokenid",
          "type": "uint256"
        },
        {
          "internalType": "uint256",
          "name": "price",
          "type": "uint256"
        }
      ],
      "name": "listnft",
      "outputs": [],
      "stateMutability": "nonpayable",
      "type": "function"
    },
    {
      "inputs": [
        {
          "internalType": "address",
          "name": "nftcontractaddress",
          "type": "address"
        },
        {
          "internalType": "uint256",
          "name": "tokenid",
          "type": "uint256"
        }
      ],
      "name": "stakeNFT",
      "outputs": [],
      "stateMutability": "nonpayable",
      "type": "function"
    },
    {
      "inputs": [],
      "name": "startstaking",
      "outputs": [],
      "stateMutability": "nonpayable",
      "type": "function"
    },
    {
      "inputs": [
        {
          "internalType": "uint256",
          "name": "marketitemid",
          "type": "uint256"
        }
      ],
      "name": "totalpricewith_marketfees",
      "outputs": [
        {
          "internalType": "uint256",
          "name": "",
          "type": "uint256"
        }
      ],
      "stateMutability": "view",
      "type": "function"
    }
  ],
  "bytecode": "0x6080604052603c600755603c600c553480156200001b57600080fd5b506040516200262b3803806200262b833981810160405281019062000041919062000195565b60016000819055508160038190555033600260006101000a81548173ffffffffffffffffffffffffffffffffffffffff021916908373ffffffffffffffffffffffffffffffffffffffff16021790555080600560006101000a81548173ffffffffffffffffffffffffffffffffffffffff021916908373ffffffffffffffffffffffffffffffffffffffff16021790555060075442620000e291906200020b565b600681905550505062000268565b600080fd5b6000819050919050565b6200010a81620000f5565b81146200011657600080fd5b50565b6000815190506200012a81620000ff565b92915050565b600073ffffffffffffffffffffffffffffffffffffffff82169050919050565b60006200015d8262000130565b9050919050565b6200016f8162000150565b81146200017b57600080fd5b50565b6000815190506200018f8162000164565b92915050565b60008060408385031215620001af57620001ae620000f0565b5b6000620001bf8582860162000119565b9250506020620001d2858286016200017e565b9150509250929050565b7f4e487b7100000000000000000000000000000000000000000000000000000000600052601160045260246000fd5b60006200021882620000f5565b91506200022583620000f5565b9250827fffffffffffffffffffffffffffffffffffffffffffffffffffffffffffffffff038211156200025d576200025c620001dc565b5b828201905092915050565b6123b380620002786000396000f3fe6080604052600436106100915760003560e01c8063ae80fe1211610059578063ae80fe121461015a578063b13270d514610171578063b90878b31461019a578063cd8d9066146101c3578063d2a78f6d146101ec57610091565b80632af31c38146100965780633653d4d0146100d3578063457b1ae2146100ea57806365eadf1014610115578063a87463451461013e575b600080fd5b3480156100a257600080fd5b506100bd60048036038101906100b8919061162a565b610229565b6040516100ca9190611666565b60405180910390f35b3480156100df57600080fd5b506100e8610279565b005b3480156100f657600080fd5b506100ff6103aa565b60405161010c9190611666565b60405180910390f35b34801561012157600080fd5b5061013c600480360381019061013791906116df565b6103b4565b005b6101586004803603810190610153919061162a565b610626565b005b34801561016657600080fd5b5061016f610aba565b005b34801561017d57600080fd5b506101986004803603810190610193919061170c565b610b60565b005b3480156101a657600080fd5b506101c160048036038101906101bc91906116df565b610d6a565b005b3480156101cf57600080fd5b506101ea60048036038101906101e5919061174c565b6110da565b005b3480156101f857600080fd5b50610213600480360381019061020e919061162a565b6113fb565b6040516102209190611887565b60405180910390f35b600080600460008481526020019081526020016000206004015490506000600354606461025691906118d1565b826102619190611927565b905060648161027091906119b0565b92505050919050565b60011515600860003373ffffffffffffffffffffffffffffffffffffffff1673ffffffffffffffffffffffffffffffffffffffff16815260200190815260200160002060009054906101000a900460ff1615151461030c576040517f08c379a000000000000000000000000000000000000000000000000000000000815260040161030390611a3e565b60405180910390fd5b600b544210610350576040517f08c379a000000000000000000000000000000000000000000000000000000000815260040161034790611ad0565b60405180910390fd5b6001600960003373ffffffffffffffffffffffffffffffffffffffff1673ffffffffffffffffffffffffffffffffffffffff16815260200190815260200160002060006101000a81548160ff021916908315150217905550565b6000600154905090565b60011515600860003373ffffffffffffffffffffffffffffffffffffffff1673ffffffffffffffffffffffffffffffffffffffff16815260200190815260200160002060009054906101000a900460ff16151514610447576040517f08c379a000000000000000000000000000000000000000000000000000000000815260040161043e90611b3c565b60405180910390fd5b60011515600960003373ffffffffffffffffffffffffffffffffffffffff1673ffffffffffffffffffffffffffffffffffffffff16815260200190815260200160002060009054906101000a900460ff161515146104da576040517f08c379a00000000000000000000000000000000000000000000000000000000081526004016104d190611bce565b60405180910390fd5b6000600a60003373ffffffffffffffffffffffffffffffffffffffff1673ffffffffffffffffffffffffffffffffffffffff16815260200190815260200160002060008373ffffffffffffffffffffffffffffffffffffffff1673ffffffffffffffffffffffffffffffffffffffff1681526020019081526020016000205490508173ffffffffffffffffffffffffffffffffffffffff166323b872dd3033846040518463ffffffff1660e01b815260040161059893929190611bfd565b600060405180830381600087803b1580156105b257600080fd5b505af11580156105c6573d6000803e3d6000fd5b505050506000600860003373ffffffffffffffffffffffffffffffffffffffff1673ffffffffffffffffffffffffffffffffffffffff16815260200190815260200160002060006101000a81548160ff0219169083151502179055505050565b61062e611528565b60008111801561064057506001548111155b61067f576040517f08c379a000000000000000000000000000000000000000000000000000000000815260040161067690611c80565b60405180910390fd5b6004600082815260200190815260200160002060030160009054906101000a900473ffffffffffffffffffffffffffffffffffffffff1673ffffffffffffffffffffffffffffffffffffffff163373ffffffffffffffffffffffffffffffffffffffff161415610724576040517f08c379a000000000000000000000000000000000000000000000000000000000815260040161071b90611cec565b60405180910390fd5b600061072f82610229565b9050600060046000848152602001908152602001600020905081341461078a576040517f08c379a000000000000000000000000000000000000000000000000000000000815260040161078190611d58565b60405180910390fd5b600015158160050160009054906101000a900460ff161515146107e2576040517f08c379a00000000000000000000000000000000000000000000000000000000081526004016107d990611dc4565b60405180910390fd5b8060030160009054906101000a900473ffffffffffffffffffffffffffffffffffffffff1673ffffffffffffffffffffffffffffffffffffffff166108fc82600401549081150290604051600060405180830381858888f19350505050158015610850573d6000803e3d6000fd5b50600260009054906101000a900473ffffffffffffffffffffffffffffffffffffffff1673ffffffffffffffffffffffffffffffffffffffff166108fc82600401548461089d9190611de4565b9081150290604051600060405180830381858888f193505050501580156108c8573d6000803e3d6000fd5b508060010160009054906101000a900473ffffffffffffffffffffffffffffffffffffffff1673ffffffffffffffffffffffffffffffffffffffff166323b872dd303384600201546040518463ffffffff1660e01b815260040161092e93929190611bfd565b600060405180830381600087803b15801561094857600080fd5b505af115801561095c573d6000803e3d6000fd5b5050505060018160050160006101000a81548160ff021916908315150217905550338160030160006101000a81548173ffffffffffffffffffffffffffffffffffffffff021916908373ffffffffffffffffffffffffffffffffffffffff16021790555060008160050160016101000a81548160ff0219169083151502179055503373ffffffffffffffffffffffffffffffffffffffff168160030160009054906101000a900473ffffffffffffffffffffffffffffffffffffffff1673ffffffffffffffffffffffffffffffffffffffff168260010160009054906101000a900473ffffffffffffffffffffffffffffffffffffffff1673ffffffffffffffffffffffffffffffffffffffff167fedefbe5719e3e26fd52f9d1ab9dcd6c74a92c4458e11a87ddf7cfd13dc906d0d8685600201548660040154604051610aa593929190611e18565b60405180910390a45050610ab7611578565b50565b3373ffffffffffffffffffffffffffffffffffffffff16600260009054906101000a900473ffffffffffffffffffffffffffffffffffffffff1673ffffffffffffffffffffffffffffffffffffffff1614610b4a576040517f08c379a0000000000000000000000000000000000000000000000000000000008152600401610b4190611ec1565b60405180910390fd5b60075442610b5891906118d1565b600681905550565b600654421115610ba5576040517f08c379a0000000000000000000000000000000000000000000000000000000008152600401610b9c90611f53565b60405180910390fd5b8173ffffffffffffffffffffffffffffffffffffffff166323b872dd3330846040518463ffffffff1660e01b8152600401610be293929190611bfd565b600060405180830381600087803b158015610bfc57600080fd5b505af1158015610c10573d6000803e3d6000fd5b505050506001600860003373ffffffffffffffffffffffffffffffffffffffff1673ffffffffffffffffffffffffffffffffffffffff16815260200190815260200160002060006101000a81548160ff021916908315150217905550600c54600654610c7c91906118d1565b600b8190555080600a60003373ffffffffffffffffffffffffffffffffffffffff1673ffffffffffffffffffffffffffffffffffffffff16815260200190815260200160002060008473ffffffffffffffffffffffffffffffffffffffff1673ffffffffffffffffffffffffffffffffffffffff16815260200190815260200160002081905550600d339080600181540180825580915050600190039060005260206000200160009091909190916101000a81548173ffffffffffffffffffffffffffffffffffffffff021916908373ffffffffffffffffffffffffffffffffffffffff1602179055505050565b60011515600860003373ffffffffffffffffffffffffffffffffffffffff1673ffffffffffffffffffffffffffffffffffffffff16815260200190815260200160002060009054906101000a900460ff16151514610dfd576040517f08c379a0000000000000000000000000000000000000000000000000000000008152600401610df490611fbf565b60405180910390fd5b60001515600960003373ffffffffffffffffffffffffffffffffffffffff1673ffffffffffffffffffffffffffffffffffffffff16815260200190815260200160002060009054906101000a900460ff16151514610e90576040517f08c379a0000000000000000000000000000000000000000000000000000000008152600401610e8790612077565b60405180910390fd5b600b54421015610ed5576040517f08c379a0000000000000000000000000000000000000000000000000000000008152600401610ecc90612109565b60405180910390fd5b6000600a60003373ffffffffffffffffffffffffffffffffffffffff1673ffffffffffffffffffffffffffffffffffffffff16815260200190815260200160002060008373ffffffffffffffffffffffffffffffffffffffff1673ffffffffffffffffffffffffffffffffffffffff1681526020019081526020016000205490508173ffffffffffffffffffffffffffffffffffffffff166323b872dd3033846040518463ffffffff1660e01b8152600401610f9393929190611bfd565b600060405180830381600087803b158015610fad57600080fd5b505af1158015610fc1573d6000803e3d6000fd5b50505050600560009054906101000a900473ffffffffffffffffffffffffffffffffffffffff1673ffffffffffffffffffffffffffffffffffffffff1663a9059cbb3368056bc75e2d631000006040518363ffffffff1660e01b815260040161102b92919061216e565b602060405180830381600087803b15801561104557600080fd5b505af1158015611059573d6000803e3d6000fd5b505050506040513d601f19601f8201168201806040525081019061107d91906121c3565b506000600860003373ffffffffffffffffffffffffffffffffffffffff1673ffffffffffffffffffffffffffffffffffffffff16815260200190815260200160002060006101000a81548160ff0219169083151502179055505050565b6110e2611528565b60008111611125576040517f08c379a000000000000000000000000000000000000000000000000000000000815260040161111c9061223c565b60405180910390fd5b600160008154809291906111389061225c565b91905055506000151560046000600154815260200190815260200160002060050160019054906101000a900460ff161515146111a9576040517f08c379a00000000000000000000000000000000000000000000000000000000081526004016111a0906122f1565b60405180910390fd5b6040518060e0016040528060015481526020018473ffffffffffffffffffffffffffffffffffffffff1681526020018381526020013373ffffffffffffffffffffffffffffffffffffffff168152602001828152602001600015158152602001600115158152506004600060015481526020019081526020016000206000820151816000015560208201518160010160006101000a81548173ffffffffffffffffffffffffffffffffffffffff021916908373ffffffffffffffffffffffffffffffffffffffff1602179055506040820151816002015560608201518160030160006101000a81548173ffffffffffffffffffffffffffffffffffffffff021916908373ffffffffffffffffffffffffffffffffffffffff1602179055506080820151816004015560a08201518160050160006101000a81548160ff02191690831515021790555060c08201518160050160016101000a81548160ff0219169083151502179055509050508273ffffffffffffffffffffffffffffffffffffffff166323b872dd3330856040518463ffffffff1660e01b815260040161135193929190611bfd565b600060405180830381600087803b15801561136b57600080fd5b505af115801561137f573d6000803e3d6000fd5b505050503373ffffffffffffffffffffffffffffffffffffffff168373ffffffffffffffffffffffffffffffffffffffff167f894171a2dfd4a1203bedc1e954dbafa2b0d42c117dcbde7a45ed0adfd8f6378560015485856040516113e693929190611e18565b60405180910390a36113f6611578565b505050565b611403611582565b600460008381526020019081526020016000206040518060e0016040529081600082015481526020016001820160009054906101000a900473ffffffffffffffffffffffffffffffffffffffff1673ffffffffffffffffffffffffffffffffffffffff1673ffffffffffffffffffffffffffffffffffffffff168152602001600282015481526020016003820160009054906101000a900473ffffffffffffffffffffffffffffffffffffffff1673ffffffffffffffffffffffffffffffffffffffff1673ffffffffffffffffffffffffffffffffffffffff168152602001600482015481526020016005820160009054906101000a900460ff161515151581526020016005820160019054906101000a900460ff1615151515815250509050919050565b6002600054141561156e576040517f08c379a00000000000000000000000000000000000000000000000000000000081526004016115659061235d565b60405180910390fd5b6002600081905550565b6001600081905550565b6040518060e0016040528060008152602001600073ffffffffffffffffffffffffffffffffffffffff16815260200160008152602001600073ffffffffffffffffffffffffffffffffffffffff168152602001600081526020016000151581526020016000151581525090565b600080fd5b6000819050919050565b611607816115f4565b811461161257600080fd5b50565b600081359050611624816115fe565b92915050565b6000602082840312156116405761163f6115ef565b5b600061164e84828501611615565b91505092915050565b611660816115f4565b82525050565b600060208201905061167b6000830184611657565b92915050565b600073ffffffffffffffffffffffffffffffffffffffff82169050919050565b60006116ac82611681565b9050919050565b6116bc816116a1565b81146116c757600080fd5b50565b6000813590506116d9816116b3565b92915050565b6000602082840312156116f5576116f46115ef565b5b6000611703848285016116ca565b91505092915050565b60008060408385031215611723576117226115ef565b5b6000611731858286016116ca565b925050602061174285828601611615565b9150509250929050565b600080600060608486031215611765576117646115ef565b5b6000611773868287016116ca565b935050602061178486828701611615565b925050604061179586828701611615565b9150509250925092565b6117a8816115f4565b82525050565b6117b7816116a1565b82525050565b60006117c882611681565b9050919050565b6117d8816117bd565b82525050565b60008115159050919050565b6117f3816117de565b82525050565b60e08201600082015161180f600085018261179f565b50602082015161182260208501826117ae565b506040820151611835604085018261179f565b50606082015161184860608501826117cf565b50608082015161185b608085018261179f565b5060a082015161186e60a08501826117ea565b5060c082015161188160c08501826117ea565b50505050565b600060e08201905061189c60008301846117f9565b92915050565b7f4e487b7100000000000000000000000000000000000000000000000000000000600052601160045260246000fd5b60006118dc826115f4565b91506118e7836115f4565b9250827fffffffffffffffffffffffffffffffffffffffffffffffffffffffffffffffff0382111561191c5761191b6118a2565b5b828201905092915050565b6000611932826115f4565b915061193d836115f4565b9250817fffffffffffffffffffffffffffffffffffffffffffffffffffffffffffffffff0483118215151615611976576119756118a2565b5b828202905092915050565b7f4e487b7100000000000000000000000000000000000000000000000000000000600052601260045260246000fd5b60006119bb826115f4565b91506119c6836115f4565b9250826119d6576119d5611981565b5b828204905092915050565b600082825260208201905092915050565b7f596f7520646964206e6f74206465706f736974204e4654730000000000000000600082015250565b6000611a286018836119e1565b9150611a33826119f2565b602082019050919050565b60006020820190508181036000830152611a5781611a1b565b9050919050565b7f596f7520636f756c64206e6f74206e6f742063616e63656c206c6f636b696e6760008201527f2c20776974686472617720796f7572206e667420776974682070726f66697473602082015250565b6000611aba6040836119e1565b9150611ac582611a5e565b604082019050919050565b60006020820190508181036000830152611ae981611aad565b9050919050565b7f596f7520646964206e6f74206465706f736974206c6f636b656420746f6b656e600082015250565b6000611b266020836119e1565b9150611b3182611af0565b602082019050919050565b60006020820190508181036000830152611b5581611b19565b9050919050565b7f546f20776974686472617720776974686f7574207265776172642c20796f752060008201527f6861766520746f2063616e63656c206c6f636b696e6720666972737400000000602082015250565b6000611bb8603c836119e1565b9150611bc382611b5c565b604082019050919050565b60006020820190508181036000830152611be781611bab565b9050919050565b611bf7816116a1565b82525050565b6000606082019050611c126000830186611bee565b611c1f6020830185611bee565b611c2c6040830184611657565b949350505050565b7f696e76616c6964206d61726b6574206974656d20696400000000000000000000600082015250565b6000611c6a6016836119e1565b9150611c7582611c34565b602082019050919050565b60006020820190508181036000830152611c9981611c5d565b9050919050565b7f62757965722063616e206e6f742062652073656c6c6572000000000000000000600082015250565b6000611cd66017836119e1565b9150611ce182611ca0565b602082019050919050565b60006020820190508181036000830152611d0581611cc9565b9050919050565b7f50617920776861742073656c6c65722072657175697265730000000000000000600082015250565b6000611d426018836119e1565b9150611d4d82611d0c565b602082019050919050565b60006020820190508181036000830152611d7181611d35565b9050919050565b7f74686973206e667420697320616c726561647920736f6c640000000000000000600082015250565b6000611dae6018836119e1565b9150611db982611d78565b602082019050919050565b60006020820190508181036000830152611ddd81611da1565b9050919050565b6000611def826115f4565b9150611dfa836115f4565b925082821015611e0d57611e0c6118a2565b5b828203905092915050565b6000606082019050611e2d6000830186611657565b611e3a6020830185611657565b611e476040830184611657565b949350505050565b7f4f6e6c7920636f6e7472616374206465706c6f7965722063616e2063616c6c2060008201527f746869732066756e6374696f6e00000000000000000000000000000000000000602082015250565b6000611eab602d836119e1565b9150611eb682611e4f565b604082019050919050565b60006020820190508181036000830152611eda81611e9e565b9050919050565b7f6475726174696f6e20746f206465706f73697420686173206265656e2070617360008201527f7365640000000000000000000000000000000000000000000000000000000000602082015250565b6000611f3d6023836119e1565b9150611f4882611ee1565b604082019050919050565b60006020820190508181036000830152611f6c81611f30565b9050919050565b7f596f7520646964206e6f74207374616b65204e46547300000000000000000000600082015250565b6000611fa96016836119e1565b9150611fb482611f73565b602082019050919050565b60006020820190508181036000830152611fd881611f9c565b9050919050565b7f596f7520686176652063616e63656c656420746865207374616b696e672c207960008201527f6f75206172652061626c6520746f20776974686472617720776974686f75742060208201527f72657761726420746f6b656e7300000000000000000000000000000000000000604082015250565b6000612061604d836119e1565b915061206c82611fdf565b606082019050919050565b6000602082019050818103600083015261209081612054565b9050919050565b7f7761697420756e74696c207468652074696d65206f662074616b696e6720707260008201527f6f66697420636f6d657300000000000000000000000000000000000000000000602082015250565b60006120f3602a836119e1565b91506120fe82612097565b604082019050919050565b60006020820190508181036000830152612122816120e6565b9050919050565b6000819050919050565b6000819050919050565b600061215861215361214e84612129565b612133565b6115f4565b9050919050565b6121688161213d565b82525050565b60006040820190506121836000830185611bee565b612190602083018461215f565b9392505050565b6121a0816117de565b81146121ab57600080fd5b50565b6000815190506121bd81612197565b92915050565b6000602082840312156121d9576121d86115ef565b5b60006121e7848285016121ae565b91505092915050565b7f70726963652073686f756c642067726561746572207468616e20300000000000600082015250565b6000612226601b836119e1565b9150612231826121f0565b602082019050919050565b6000602082019050818103600083015261225581612219565b9050919050565b6000612267826115f4565b91507fffffffffffffffffffffffffffffffffffffffffffffffffffffffffffffffff82141561229a576122996118a2565b5b600182019050919050565b7f206974656d20697320616c7265616479206c6973746564000000000000000000600082015250565b60006122db6017836119e1565b91506122e6826122a5565b602082019050919050565b6000602082019050818103600083015261230a816122ce565b9050919050565b7f5265656e7472616e637947756172643a207265656e7472616e742063616c6c00600082015250565b6000612347601f836119e1565b915061235282612311565b602082019050919050565b600060208201905081810360008301526123768161233a565b905091905056fea2646970667358221220fd0e6dd99d4c9ab9b2972b907b09eab0a9578eca05e2684a66d7916a3417d06464736f6c63430008090033",
  "linkReferences": {},
  "deployedLinkReferences": {}
}